{
  "_format": "hh3-artifact-1",
  "contractName": "Transactions",
  "sourceName": "contracts/Transaction.sol",
  "abi": [
    {
      "anonymous": false,
      "inputs": [
        {
          "indexed": false,
          "internalType": "address",
          "name": "from",
          "type": "address"
        },
        {
          "indexed": false,
          "internalType": "address",
          "name": "receiver",
          "type": "address"
        },
        {
          "indexed": false,
          "internalType": "uint256",
          "name": "amount",
          "type": "uint256"
        },
        {
          "indexed": false,
          "internalType": "string",
          "name": "message",
          "type": "string"
        },
        {
          "indexed": false,
          "internalType": "uint256",
          "name": "timestamp",
          "type": "uint256"
        },
        {
          "indexed": false,
          "internalType": "string",
          "name": "keyword",
          "type": "string"
        }
      ],
      "name": "Transfer",
      "type": "event"
    },
    {
      "inputs": [
        {
          "internalType": "address payable",
          "name": "receiver",
          "type": "address"
        },
        {
          "internalType": "uint256",
          "name": "amount",
          "type": "uint256"
        },
        {
          "internalType": "string",
          "name": "message",
          "type": "string"
        },
        {
          "internalType": "string",
          "name": "keyword",
          "type": "string"
        }
      ],
      "name": "addToBlockchain",
      "outputs": [],
      "stateMutability": "payable",
      "type": "function"
    }
  ],
  "bytecode": "0x6080604052348015600e575f5ffd5b50610b578061001c5f395ff3fe60806040526004361061001d575f3560e01c8063cc2d7ead14610021575b5f5ffd5b61003b600480360381019061003691906104ae565b61003d565b005b82341461007f576040517f08c379a0000000000000000000000000000000000000000000000000000000008152600401610076906105ca565b60405180910390fd5b60015f5f8282546100909190610615565b9250508190555060016040518060c001604052803373ffffffffffffffffffffffffffffffffffffffff1681526020018673ffffffffffffffffffffffffffffffffffffffff16815260200185815260200184815260200142815260200183815250908060018154018082558091505060019003905f5260205f2090600602015f909190919091505f820151815f015f6101000a81548173ffffffffffffffffffffffffffffffffffffffff021916908373ffffffffffffffffffffffffffffffffffffffff1602179055506020820151816001015f6101000a81548173ffffffffffffffffffffffffffffffffffffffff021916908373ffffffffffffffffffffffffffffffffffffffff1602179055506040820151816002015560608201518160030190816101c1919061084f565b506080820151816004015560a08201518160050190816101e1919061084f565b5050505f8473ffffffffffffffffffffffffffffffffffffffff16346040516102099061094b565b5f6040518083038185875af1925050503d805f8114610243576040519150601f19603f3d011682016040523d82523d5f602084013e610248565b606091505b505090508061028c576040517f08c379a0000000000000000000000000000000000000000000000000000000008152600401610283906109cf565b60405180910390fd5b7f416cfa4330a4565f45c2fd2dd4826a83a37443aba2ce6f79477c7355afac35fa3386868642876040516102c596959493929190610ab4565b60405180910390a15050505050565b5f604051905090565b5f5ffd5b5f5ffd5b5f73ffffffffffffffffffffffffffffffffffffffff82169050919050565b5f61030e826102e5565b9050919050565b61031e81610304565b8114610328575f5ffd5b50565b5f8135905061033981610315565b92915050565b5f819050919050565b6103518161033f565b811461035b575f5ffd5b50565b5f8135905061036c81610348565b92915050565b5f5ffd5b5f5ffd5b5f601f19601f8301169050919050565b7f4e487b71000000000000000000000000000000000000000000000000000000005f52604160045260245ffd5b6103c08261037a565b810181811067ffffffffffffffff821117156103df576103de61038a565b5b80604052505050565b5f6103f16102d4565b90506103fd82826103b7565b919050565b5f67ffffffffffffffff82111561041c5761041b61038a565b5b6104258261037a565b9050602081019050919050565b828183375f83830152505050565b5f61045261044d84610402565b6103e8565b90508281526020810184848401111561046e5761046d610376565b5b610479848285610432565b509392505050565b5f82601f83011261049557610494610372565b5b81356104a5848260208601610440565b91505092915050565b5f5f5f5f608085870312156104c6576104c56102dd565b5b5f6104d38782880161032b565b94505060206104e48782880161035e565b935050604085013567ffffffffffffffff811115610505576105046102e1565b5b61051187828801610481565b925050606085013567ffffffffffffffff811115610532576105316102e1565b5b61053e87828801610481565b91505092959194509250565b5f82825260208201905092915050565b7f53656e7420616d6f756e74206d757374206d61746368207468652073706563695f8201527f6669656420616d6f756e74000000000000000000000000000000000000000000602082015250565b5f6105b4602b8361054a565b91506105bf8261055a565b604082019050919050565b5f6020820190508181035f8301526105e1816105a8565b9050919050565b7f4e487b71000000000000000000000000000000000000000000000000000000005f52601160045260245ffd5b5f61061f8261033f565b915061062a8361033f565b9250828201905080821115610642576106416105e8565b5b92915050565b5f81519050919050565b7f4e487b71000000000000000000000000000000000000000000000000000000005f52602260045260245ffd5b5f600282049050600182168061069657607f821691505b6020821081036106a9576106a8610652565b5b50919050565b5f819050815f5260205f209050919050565b5f6020601f8301049050919050565b5f82821b905092915050565b5f6008830261070b7fffffffffffffffffffffffffffffffffffffffffffffffffffffffffffffffff826106d0565b61071586836106d0565b95508019841693508086168417925050509392505050565b5f819050919050565b5f61075061074b6107468461033f565b61072d565b61033f565b9050919050565b5f819050919050565b61076983610736565b61077d61077582610757565b8484546106dc565b825550505050565b5f5f905090565b610794610785565b61079f818484610760565b505050565b5b818110156107c2576107b75f8261078c565b6001810190506107a5565b5050565b601f821115610807576107d8816106af565b6107e1846106c1565b810160208510156107f0578190505b6108046107fc856106c1565b8301826107a4565b50505b505050565b5f82821c905092915050565b5f6108275f198460080261080c565b1980831691505092915050565b5f61083f8383610818565b9150826002028217905092915050565b61085882610648565b67ffffffffffffffff8111156108715761087061038a565b5b61087b825461067f565b6108868282856107c6565b5f60209050601f8311600181146108b7575f84156108a5578287015190505b6108af8582610834565b865550610916565b601f1984166108c5866106af565b5f5b828110156108ec578489015182556001820191506020850194506020810190506108c7565b868310156109095784890151610905601f891682610818565b8355505b6001600288020188555050505b505050505050565b5f81905092915050565b50565b5f6109365f8361091e565b915061094182610928565b5f82019050919050565b5f6109558261092b565b9150819050919050565b7f4661696c656420746f2073656e6420457468657220746f2074686520726563695f8201527f7069656e74000000000000000000000000000000000000000000000000000000602082015250565b5f6109b960258361054a565b91506109c48261095f565b604082019050919050565b5f6020820190508181035f8301526109e6816109ad565b9050919050565b5f6109f7826102e5565b9050919050565b610a07816109ed565b82525050565b5f610a27610a22610a1d846102e5565b61072d565b6102e5565b9050919050565b5f610a3882610a0d565b9050919050565b5f610a4982610a2e565b9050919050565b610a5981610a3f565b82525050565b610a688161033f565b82525050565b8281835e5f83830152505050565b5f610a8682610648565b610a90818561054a565b9350610aa0818560208601610a6e565b610aa98161037a565b840191505092915050565b5f60c082019050610ac75f8301896109fe565b610ad46020830188610a50565b610ae16040830187610a5f565b8181036060830152610af38186610a7c565b9050610b026080830185610a5f565b81810360a0830152610b148184610a7c565b905097965050505050505056fea264697066735822122023dd1486512d417d61a35c8084b13b5081bd430e40405d1079183a5d9491d7df64736f6c634300081c0033",
  "linkReferences": {},
  "deployedLinkReferences": {},
  "immutableReferences": {},
  "inputSourceName": "project/contracts/Transaction.sol",
  "buildInfoId": "solc-0_8_28-683bd14d4a0aff6651fc9f48aaedb424649586fb"
}